{
  "contractName": "SimpleStorage",
  "abi": [
    {
      "inputs": [
        {
          "internalType": "uint256",
          "name": "x",
          "type": "uint256"
        },
        {
          "internalType": "uint256",
          "name": "id",
          "type": "uint256"
        }
      ],
      "name": "setter",
      "outputs": [],
      "stateMutability": "nonpayable",
      "type": "function"
    },
    {
      "inputs": [
        {
          "internalType": "uint256",
          "name": "id",
          "type": "uint256"
        }
      ],
      "name": "getter",
      "outputs": [
        {
          "internalType": "uint256",
          "name": "",
          "type": "uint256"
        }
      ],
      "stateMutability": "view",
      "type": "function",
      "constant": true
    }
  ],
  "bytecode": "0x608060405234801561001057600080fd5b50610337806100206000396000f3fe608060405234801561001057600080fd5b50600436106100365760003560e01c80635298f36d1461003b57806394cad55d14610057575b600080fd5b610055600480360381019061005091906101e5565b610087565b005b610071600480360381019061006c9190610225565b610143565b60405161007e9190610261565b60405180910390f35b600181036100a75760018261009c91906102ab565b60008190555061013f565b600281036100c7576001826100bc91906102ab565b60018190555061013e565b600381036100e7576001826100dc91906102ab565b60028190555061013d565b60048103610107576001826100fc91906102ab565b60038190555061013c565b600581036101275760018261011c91906102ab565b60048190555061013b565b60018261013491906102ab565b6005819055505b5b5b5b5b5050565b6000600182036101575760005490506101a5565b600282036101695760015490506101a5565b6003820361017b5760025490506101a5565b6004820361018d5760035490506101a5565b6005820361019f5760045490506101a5565b60055490505b919050565b600080fd5b6000819050919050565b6101c2816101af565b81146101cd57600080fd5b50565b6000813590506101df816101b9565b92915050565b600080604083850312156101fc576101fb6101aa565b5b600061020a858286016101d0565b925050602061021b858286016101d0565b9150509250929050565b60006020828403121561023b5761023a6101aa565b5b6000610249848285016101d0565b91505092915050565b61025b816101af565b82525050565b60006020820190506102766000830184610252565b92915050565b7f4e487b7100000000000000000000000000000000000000000000000000000000600052601160045260246000fd5b60006102b6826101af565b91506102c1836101af565b9250827fffffffffffffffffffffffffffffffffffffffffffffffffffffffffffffffff038211156102f6576102f561027c565b5b82820190509291505056fea26469706673582212200b59c3eb348213fc0fc4d581563506dcc442f8ab21ca340eacd779a44d3a63ee64736f6c634300080d0033",
  "immutableReferences": {},
  "source": "// SPDX-License-Identifier: MIT\r\npragma solidity ^0.8.0;\r\n\r\ncontract SimpleStorage {\r\n    uint256 private storedData1;\r\n    uint256 private storedData2;\r\n    uint256 private storedData3;\r\n    uint256 private storedData4;\r\n    uint256 private storedData5;\r\n    uint256 private storedData6;\r\n\r\n    function setter(uint256 x,uint256 id) public {\r\n            if (id==1){\r\n                storedData1 = x + 1;\r\n            }\r\n            else if(id==2){\r\n                storedData2 = x + 1;\r\n            }\r\n            else if(id==3){\r\n                storedData3 = x + 1;\r\n            }\r\n            else if(id==4){\r\n                storedData4 = x + 1;\r\n            }\r\n            else if(id==5){\r\n                storedData5 = x + 1;\r\n            }\r\n            else {\r\n                storedData6 = x + 1;\r\n            }\r\n    }\r\n\r\n    function getter(uint256 id) public view returns (uint256) {\r\n        if (id==1){\r\n                return storedData1;\r\n            }\r\n            else if(id==2){\r\n                return storedData2;\r\n            }\r\n            else if(id==3){\r\n                return storedData3;\r\n            }\r\n            else if(id==4){\r\n                return storedData4;\r\n            }\r\n            else if(id==5){\r\n                return storedData5;\r\n            }\r\n            else {\r\n                return storedData6;\r\n            }\r\n}\r\n}",
  "sourcePath": "D:\\Documents\\Electra\\contracts\\SimpleStorage.sol",
  "compiler": {
    "name": "solc",
    "version": "0.8.13+commit.abaa5c0e.Emscripten.clang"
  },
  "schemaVersion": "3.4.16",
  "updatedAt": "2024-05-11T03:21:52.389Z",
  "networkType": "ethereum",
  "devdoc": {
    "kind": "dev",
    "methods": {},
    "version": 1
  },
  "userdoc": {
    "kind": "user",
    "methods": {},
    "version": 1
  }
}